{
	"notas.sol": {
		"Notas": {
			"abi": [
				{
					"inputs": [],
					"stateMutability": "nonpayable",
					"type": "constructor"
				},
				{
					"anonymous": false,
					"inputs": [
						{
							"indexed": false,
							"internalType": "bytes32",
							"name": "",
							"type": "bytes32"
						}
					],
					"name": "alumno_evaluado",
					"type": "event"
				},
				{
					"anonymous": false,
					"inputs": [
						{
							"indexed": false,
							"internalType": "string",
							"name": "",
							"type": "string"
						}
					],
					"name": "pedir_revision",
					"type": "event"
				},
				{
					"inputs": [
						{
							"internalType": "string",
							"name": "_idAlumno",
							"type": "string"
						},
						{
							"internalType": "uint256",
							"name": "_nota",
							"type": "uint256"
						}
					],
					"name": "Evaluar",
					"outputs": [],
					"stateMutability": "nonpayable",
					"type": "function"
				},
				{
					"inputs": [],
					"name": "profesor",
					"outputs": [
						{
							"internalType": "address",
							"name": "",
							"type": "address"
						}
					],
					"stateMutability": "view",
					"type": "function"
				},
				{
					"inputs": [
						{
							"internalType": "string",
							"name": "_idAlumno",
							"type": "string"
						}
					],
					"name": "verNotas",
					"outputs": [
						{
							"internalType": "uint256",
							"name": "",
							"type": "uint256"
						}
					],
					"stateMutability": "view",
					"type": "function"
				}
			],
			"devdoc": {
				"kind": "dev",
				"methods": {},
				"version": 1
			},
			"evm": {
				"assembly": "    /* \"notas.sol\":69:1660  contract Notas {... */\n  mstore(0x40, 0x80)\n    /* \"notas.sol\":223:282  constructor() public {... */\n  callvalue\n  dup1\n  iszero\n  tag_1\n  jumpi\n  0x00\n  dup1\n  revert\ntag_1:\n  pop\n    /* \"notas.sol\":265:275  msg.sender */\n  caller\n    /* \"notas.sol\":254:262  profesor */\n  0x00\n  dup1\n    /* \"notas.sol\":254:275  profesor = msg.sender */\n  0x0100\n  exp\n  dup2\n  sload\n  dup2\n  0xffffffffffffffffffffffffffffffffffffffff\n  mul\n  not\n  and\n  swap1\n  dup4\n  0xffffffffffffffffffffffffffffffffffffffff\n  and\n  mul\n  or\n  swap1\n  sstore\n  pop\n    /* \"notas.sol\":69:1660  contract Notas {... */\n  dataSize(sub_0)\n  dup1\n  dataOffset(sub_0)\n  0x00\n  codecopy\n  0x00\n  return\nstop\n\nsub_0: assembly {\n        /* \"notas.sol\":69:1660  contract Notas {... */\n      mstore(0x40, 0x80)\n      callvalue\n      dup1\n      iszero\n      tag_1\n      jumpi\n      0x00\n      dup1\n      revert\n    tag_1:\n      pop\n      jumpi(tag_2, lt(calldatasize, 0x04))\n      shr(0xe0, calldataload(0x00))\n      dup1\n      0x040d9f60\n      eq\n      tag_3\n      jumpi\n      dup1\n      0xdeafddae\n      eq\n      tag_4\n      jumpi\n      dup1\n      0xdf096576\n      eq\n      tag_5\n      jumpi\n    tag_2:\n      0x00\n      dup1\n      revert\n        /* \"notas.sol\":584:989  function Evaluar(string memory _idAlumno, uint _nota) public UnicamenteProfesor(msg.sender){... */\n    tag_3:\n      tag_6\n      0x04\n      dup1\n      calldatasize\n      sub\n      dup2\n      add\n      swap1\n      tag_7\n      swap2\n      swap1\n      tag_8\n      jump\t// in\n    tag_7:\n      tag_9\n      jump\t// in\n    tag_6:\n      stop\n        /* \"notas.sol\":1298:1658  function verNotas(string memory _idAlumno) public view returns(uint) {... */\n    tag_4:\n      tag_10\n      0x04\n      dup1\n      calldatasize\n      sub\n      dup2\n      add\n      swap1\n      tag_11\n      swap2\n      swap1\n      tag_12\n      jump\t// in\n    tag_11:\n      tag_13\n      jump\t// in\n    tag_10:\n      mload(0x40)\n      tag_14\n      swap2\n      swap1\n      tag_15\n      jump\t// in\n    tag_14:\n      mload(0x40)\n      dup1\n      swap2\n      sub\n      swap1\n      return\n        /* \"notas.sol\":120:143  address public profesor */\n    tag_5:\n      tag_16\n      tag_17\n      jump\t// in\n    tag_16:\n      mload(0x40)\n      tag_18\n      swap2\n      swap1\n      tag_19\n      jump\t// in\n    tag_18:\n      mload(0x40)\n      dup1\n      swap2\n      sub\n      swap1\n      return\n        /* \"notas.sol\":584:989  function Evaluar(string memory _idAlumno, uint _nota) public UnicamenteProfesor(msg.sender){... */\n    tag_9:\n        /* \"notas.sol\":664:674  msg.sender */\n      caller\n        /* \"notas.sol\":1169:1177  profesor */\n      0x00\n      dup1\n      sload\n      swap1\n      0x0100\n      exp\n      swap1\n      div\n      0xffffffffffffffffffffffffffffffffffffffff\n      and\n        /* \"notas.sol\":1155:1177  _direccion == profesor */\n      0xffffffffffffffffffffffffffffffffffffffff\n      and\n        /* \"notas.sol\":1155:1165  _direccion */\n      dup2\n        /* \"notas.sol\":1155:1177  _direccion == profesor */\n      0xffffffffffffffffffffffffffffffffffffffff\n      and\n      eq\n        /* \"notas.sol\":1147:1227  require(_direccion == profesor, \"No tienes permiso para ejecutar esta funcion.\") */\n      tag_21\n      jumpi\n      mload(0x40)\n      0x08c379a000000000000000000000000000000000000000000000000000000000\n      dup2\n      mstore\n      0x04\n      add\n      tag_22\n      swap1\n      tag_23\n      jump\t// in\n    tag_22:\n      mload(0x40)\n      dup1\n      swap2\n      sub\n      swap1\n      revert\n    tag_21:\n        /* \"notas.sol\":732:753  bytes32 hash_idAlumno */\n      0x00\n        /* \"notas.sol\":783:792  _idAlumno */\n      dup4\n        /* \"notas.sol\":766:793  abi.encodePacked(_idAlumno) */\n      add(0x20, mload(0x40))\n      tag_25\n      swap2\n      swap1\n      tag_26\n      jump\t// in\n    tag_25:\n      mload(0x40)\n      0x20\n      dup2\n      dup4\n      sub\n      sub\n      dup2\n      mstore\n      swap1\n      0x40\n      mstore\n        /* \"notas.sol\":756:794  keccak256(abi.encodePacked(_idAlumno)) */\n      dup1\n      mload\n      swap1\n      0x20\n      add\n      keccak256\n        /* \"notas.sol\":732:794  bytes32 hash_idAlumno = keccak256(abi.encodePacked(_idAlumno)) */\n      swap1\n      pop\n        /* \"notas.sol\":903:908  _nota */\n      dup3\n        /* \"notas.sol\":880:885  notas */\n      0x01\n        /* \"notas.sol\":880:900  notas[hash_idAlumno] */\n      0x00\n        /* \"notas.sol\":886:899  hash_idAlumno */\n      dup4\n        /* \"notas.sol\":880:900  notas[hash_idAlumno] */\n      dup2\n      mstore\n      0x20\n      add\n      swap1\n      dup2\n      mstore\n      0x20\n      add\n      0x00\n      keccak256\n        /* \"notas.sol\":880:908  notas[hash_idAlumno] = _nota */\n      dup2\n      swap1\n      sstore\n      pop\n        /* \"notas.sol\":952:982  alumno_evaluado(hash_idAlumno) */\n      0x9129eeeb684507aca017f10030b70e5bf86d129f417fcc5840348a957eb12cee\n        /* \"notas.sol\":968:981  hash_idAlumno */\n      dup2\n        /* \"notas.sol\":952:982  alumno_evaluado(hash_idAlumno) */\n      mload(0x40)\n      tag_27\n      swap2\n      swap1\n      tag_28\n      jump\t// in\n    tag_27:\n      mload(0x40)\n      dup1\n      swap2\n      sub\n      swap1\n      log1\n        /* \"notas.sol\":675:989  {... */\n      pop\n        /* \"notas.sol\":584:989  function Evaluar(string memory _idAlumno, uint _nota) public UnicamenteProfesor(msg.sender){... */\n      pop\n      pop\n      pop\n      jump\t// out\n        /* \"notas.sol\":1298:1658  function verNotas(string memory _idAlumno) public view returns(uint) {... */\n    tag_13:\n        /* \"notas.sol\":1361:1365  uint */\n      0x00\n        /* \"notas.sol\":1425:1446  bytes32 hash_idAlumno */\n      dup1\n        /* \"notas.sol\":1476:1485  _idAlumno */\n      dup3\n        /* \"notas.sol\":1459:1486  abi.encodePacked(_idAlumno) */\n      add(0x20, mload(0x40))\n      tag_30\n      swap2\n      swap1\n      tag_26\n      jump\t// in\n    tag_30:\n      mload(0x40)\n      0x20\n      dup2\n      dup4\n      sub\n      sub\n      dup2\n      mstore\n      swap1\n      0x40\n      mstore\n        /* \"notas.sol\":1449:1487  keccak256(abi.encodePacked(_idAlumno)) */\n      dup1\n      mload\n      swap1\n      0x20\n      add\n      keccak256\n        /* \"notas.sol\":1425:1487  bytes32 hash_idAlumno = keccak256(abi.encodePacked(_idAlumno)) */\n      swap1\n      pop\n        /* \"notas.sol\":1540:1556  uint nota_alumno */\n      0x00\n        /* \"notas.sol\":1559:1564  notas */\n      0x01\n        /* \"notas.sol\":1559:1579  notas[hash_idAlumno] */\n      0x00\n        /* \"notas.sol\":1565:1578  hash_idAlumno */\n      dup4\n        /* \"notas.sol\":1559:1579  notas[hash_idAlumno] */\n      dup2\n      mstore\n      0x20\n      add\n      swap1\n      dup2\n      mstore\n      0x20\n      add\n      0x00\n      keccak256\n      sload\n        /* \"notas.sol\":1540:1579  uint nota_alumno = notas[hash_idAlumno] */\n      swap1\n      pop\n        /* \"notas.sol\":1640:1651  nota_alumno */\n      dup1\n        /* \"notas.sol\":1633:1651  return nota_alumno */\n      swap3\n      pop\n      pop\n      pop\n        /* \"notas.sol\":1298:1658  function verNotas(string memory _idAlumno) public view returns(uint) {... */\n      swap2\n      swap1\n      pop\n      jump\t// out\n        /* \"notas.sol\":120:143  address public profesor */\n    tag_17:\n      0x00\n      dup1\n      sload\n      swap1\n      0x0100\n      exp\n      swap1\n      div\n      0xffffffffffffffffffffffffffffffffffffffff\n      and\n      dup2\n      jump\t// out\n        /* \"#utility.yul\":7:419   */\n    tag_32:\n        /* \"#utility.yul\":85:90   */\n      0x00\n        /* \"#utility.yul\":110:176   */\n      tag_34\n        /* \"#utility.yul\":126:175   */\n      tag_35\n        /* \"#utility.yul\":168:174   */\n      dup5\n        /* \"#utility.yul\":126:175   */\n      tag_36\n      jump\t// in\n    tag_35:\n        /* \"#utility.yul\":110:176   */\n      tag_37\n      jump\t// in\n    tag_34:\n        /* \"#utility.yul\":101:176   */\n      swap1\n      pop\n        /* \"#utility.yul\":199:205   */\n      dup3\n        /* \"#utility.yul\":192:197   */\n      dup2\n        /* \"#utility.yul\":185:206   */\n      mstore\n        /* \"#utility.yul\":237:241   */\n      0x20\n        /* \"#utility.yul\":230:235   */\n      dup2\n        /* \"#utility.yul\":226:242   */\n      add\n        /* \"#utility.yul\":275:278   */\n      dup5\n        /* \"#utility.yul\":266:272   */\n      dup5\n        /* \"#utility.yul\":261:264   */\n      dup5\n        /* \"#utility.yul\":257:273   */\n      add\n        /* \"#utility.yul\":254:279   */\n      gt\n        /* \"#utility.yul\":251:363   */\n      iszero\n      tag_38\n      jumpi\n        /* \"#utility.yul\":282:361   */\n      tag_39\n      tag_40\n      jump\t// in\n    tag_39:\n        /* \"#utility.yul\":251:363   */\n    tag_38:\n        /* \"#utility.yul\":372:413   */\n      tag_41\n        /* \"#utility.yul\":406:412   */\n      dup5\n        /* \"#utility.yul\":401:404   */\n      dup3\n        /* \"#utility.yul\":396:399   */\n      dup6\n        /* \"#utility.yul\":372:413   */\n      tag_42\n      jump\t// in\n    tag_41:\n        /* \"#utility.yul\":91:419   */\n      pop\n        /* \"#utility.yul\":7:419   */\n      swap4\n      swap3\n      pop\n      pop\n      pop\n      jump\t// out\n        /* \"#utility.yul\":439:779   */\n    tag_43:\n        /* \"#utility.yul\":495:500   */\n      0x00\n        /* \"#utility.yul\":544:547   */\n      dup3\n        /* \"#utility.yul\":537:541   */\n      0x1f\n        /* \"#utility.yul\":529:535   */\n      dup4\n        /* \"#utility.yul\":525:542   */\n      add\n        /* \"#utility.yul\":521:548   */\n      slt\n        /* \"#utility.yul\":511:633   */\n      tag_45\n      jumpi\n        /* \"#utility.yul\":552:631   */\n      tag_46\n      tag_47\n      jump\t// in\n    tag_46:\n        /* \"#utility.yul\":511:633   */\n    tag_45:\n        /* \"#utility.yul\":669:675   */\n      dup2\n        /* \"#utility.yul\":656:676   */\n      calldataload\n        /* \"#utility.yul\":694:773   */\n      tag_48\n        /* \"#utility.yul\":769:772   */\n      dup5\n        /* \"#utility.yul\":761:767   */\n      dup3\n        /* \"#utility.yul\":754:758   */\n      0x20\n        /* \"#utility.yul\":746:752   */\n      dup7\n        /* \"#utility.yul\":742:759   */\n      add\n        /* \"#utility.yul\":694:773   */\n      tag_32\n      jump\t// in\n    tag_48:\n        /* \"#utility.yul\":685:773   */\n      swap2\n      pop\n        /* \"#utility.yul\":501:779   */\n      pop\n        /* \"#utility.yul\":439:779   */\n      swap3\n      swap2\n      pop\n      pop\n      jump\t// out\n        /* \"#utility.yul\":785:924   */\n    tag_49:\n        /* \"#utility.yul\":831:836   */\n      0x00\n        /* \"#utility.yul\":869:875   */\n      dup2\n        /* \"#utility.yul\":856:876   */\n      calldataload\n        /* \"#utility.yul\":847:876   */\n      swap1\n      pop\n        /* \"#utility.yul\":885:918   */\n      tag_51\n        /* \"#utility.yul\":912:917   */\n      dup2\n        /* \"#utility.yul\":885:918   */\n      tag_52\n      jump\t// in\n    tag_51:\n        /* \"#utility.yul\":785:924   */\n      swap3\n      swap2\n      pop\n      pop\n      jump\t// out\n        /* \"#utility.yul\":930:1439   */\n    tag_12:\n        /* \"#utility.yul\":999:1005   */\n      0x00\n        /* \"#utility.yul\":1048:1050   */\n      0x20\n        /* \"#utility.yul\":1036:1045   */\n      dup3\n        /* \"#utility.yul\":1027:1034   */\n      dup5\n        /* \"#utility.yul\":1023:1046   */\n      sub\n        /* \"#utility.yul\":1019:1051   */\n      slt\n        /* \"#utility.yul\":1016:1135   */\n      iszero\n      tag_54\n      jumpi\n        /* \"#utility.yul\":1054:1133   */\n      tag_55\n      tag_56\n      jump\t// in\n    tag_55:\n        /* \"#utility.yul\":1016:1135   */\n    tag_54:\n        /* \"#utility.yul\":1202:1203   */\n      0x00\n        /* \"#utility.yul\":1191:1200   */\n      dup3\n        /* \"#utility.yul\":1187:1204   */\n      add\n        /* \"#utility.yul\":1174:1205   */\n      calldataload\n        /* \"#utility.yul\":1232:1250   */\n      0xffffffffffffffff\n        /* \"#utility.yul\":1224:1230   */\n      dup2\n        /* \"#utility.yul\":1221:1251   */\n      gt\n        /* \"#utility.yul\":1218:1335   */\n      iszero\n      tag_57\n      jumpi\n        /* \"#utility.yul\":1254:1333   */\n      tag_58\n      tag_59\n      jump\t// in\n    tag_58:\n        /* \"#utility.yul\":1218:1335   */\n    tag_57:\n        /* \"#utility.yul\":1359:1422   */\n      tag_60\n        /* \"#utility.yul\":1414:1421   */\n      dup5\n        /* \"#utility.yul\":1405:1411   */\n      dup3\n        /* \"#utility.yul\":1394:1403   */\n      dup6\n        /* \"#utility.yul\":1390:1412   */\n      add\n        /* \"#utility.yul\":1359:1422   */\n      tag_43\n      jump\t// in\n    tag_60:\n        /* \"#utility.yul\":1349:1422   */\n      swap2\n      pop\n        /* \"#utility.yul\":1145:1432   */\n      pop\n        /* \"#utility.yul\":930:1439   */\n      swap3\n      swap2\n      pop\n      pop\n      jump\t// out\n        /* \"#utility.yul\":1445:2099   */\n    tag_8:\n        /* \"#utility.yul\":1523:1529   */\n      0x00\n        /* \"#utility.yul\":1531:1537   */\n      dup1\n        /* \"#utility.yul\":1580:1582   */\n      0x40\n        /* \"#utility.yul\":1568:1577   */\n      dup4\n        /* \"#utility.yul\":1559:1566   */\n      dup6\n        /* \"#utility.yul\":1555:1578   */\n      sub\n        /* \"#utility.yul\":1551:1583   */\n      slt\n        /* \"#utility.yul\":1548:1667   */\n      iszero\n      tag_62\n      jumpi\n        /* \"#utility.yul\":1586:1665   */\n      tag_63\n      tag_56\n      jump\t// in\n    tag_63:\n        /* \"#utility.yul\":1548:1667   */\n    tag_62:\n        /* \"#utility.yul\":1734:1735   */\n      0x00\n        /* \"#utility.yul\":1723:1732   */\n      dup4\n        /* \"#utility.yul\":1719:1736   */\n      add\n        /* \"#utility.yul\":1706:1737   */\n      calldataload\n        /* \"#utility.yul\":1764:1782   */\n      0xffffffffffffffff\n        /* \"#utility.yul\":1756:1762   */\n      dup2\n        /* \"#utility.yul\":1753:1783   */\n      gt\n        /* \"#utility.yul\":1750:1867   */\n      iszero\n      tag_64\n      jumpi\n        /* \"#utility.yul\":1786:1865   */\n      tag_65\n      tag_59\n      jump\t// in\n    tag_65:\n        /* \"#utility.yul\":1750:1867   */\n    tag_64:\n        /* \"#utility.yul\":1891:1954   */\n      tag_66\n        /* \"#utility.yul\":1946:1953   */\n      dup6\n        /* \"#utility.yul\":1937:1943   */\n      dup3\n        /* \"#utility.yul\":1926:1935   */\n      dup7\n        /* \"#utility.yul\":1922:1944   */\n      add\n        /* \"#utility.yul\":1891:1954   */\n      tag_43\n      jump\t// in\n    tag_66:\n        /* \"#utility.yul\":1881:1954   */\n      swap3\n      pop\n        /* \"#utility.yul\":1677:1964   */\n      pop\n        /* \"#utility.yul\":2003:2005   */\n      0x20\n        /* \"#utility.yul\":2029:2082   */\n      tag_67\n        /* \"#utility.yul\":2074:2081   */\n      dup6\n        /* \"#utility.yul\":2065:2071   */\n      dup3\n        /* \"#utility.yul\":2054:2063   */\n      dup7\n        /* \"#utility.yul\":2050:2072   */\n      add\n        /* \"#utility.yul\":2029:2082   */\n      tag_49\n      jump\t// in\n    tag_67:\n        /* \"#utility.yul\":2019:2082   */\n      swap2\n      pop\n        /* \"#utility.yul\":1974:2092   */\n      pop\n        /* \"#utility.yul\":1445:2099   */\n      swap3\n      pop\n      swap3\n      swap1\n      pop\n      jump\t// out\n        /* \"#utility.yul\":2105:2223   */\n    tag_68:\n        /* \"#utility.yul\":2192:2216   */\n      tag_70\n        /* \"#utility.yul\":2210:2215   */\n      dup2\n        /* \"#utility.yul\":2192:2216   */\n      tag_71\n      jump\t// in\n    tag_70:\n        /* \"#utility.yul\":2187:2190   */\n      dup3\n        /* \"#utility.yul\":2180:2217   */\n      mstore\n        /* \"#utility.yul\":2105:2223   */\n      pop\n      pop\n      jump\t// out\n        /* \"#utility.yul\":2229:2347   */\n    tag_72:\n        /* \"#utility.yul\":2316:2340   */\n      tag_74\n        /* \"#utility.yul\":2334:2339   */\n      dup2\n        /* \"#utility.yul\":2316:2340   */\n      tag_75\n      jump\t// in\n    tag_74:\n        /* \"#utility.yul\":2311:2314   */\n      dup3\n        /* \"#utility.yul\":2304:2341   */\n      mstore\n        /* \"#utility.yul\":2229:2347   */\n      pop\n      pop\n      jump\t// out\n        /* \"#utility.yul\":2353:2730   */\n    tag_76:\n        /* \"#utility.yul\":2459:2462   */\n      0x00\n        /* \"#utility.yul\":2487:2526   */\n      tag_78\n        /* \"#utility.yul\":2520:2525   */\n      dup3\n        /* \"#utility.yul\":2487:2526   */\n      tag_79\n      jump\t// in\n    tag_78:\n        /* \"#utility.yul\":2542:2631   */\n      tag_80\n        /* \"#utility.yul\":2624:2630   */\n      dup2\n        /* \"#utility.yul\":2619:2622   */\n      dup6\n        /* \"#utility.yul\":2542:2631   */\n      tag_81\n      jump\t// in\n    tag_80:\n        /* \"#utility.yul\":2535:2631   */\n      swap4\n      pop\n        /* \"#utility.yul\":2640:2692   */\n      tag_82\n        /* \"#utility.yul\":2685:2691   */\n      dup2\n        /* \"#utility.yul\":2680:2683   */\n      dup6\n        /* \"#utility.yul\":2673:2677   */\n      0x20\n        /* \"#utility.yul\":2666:2671   */\n      dup7\n        /* \"#utility.yul\":2662:2678   */\n      add\n        /* \"#utility.yul\":2640:2692   */\n      tag_83\n      jump\t// in\n    tag_82:\n        /* \"#utility.yul\":2717:2723   */\n      dup1\n        /* \"#utility.yul\":2712:2715   */\n      dup5\n        /* \"#utility.yul\":2708:2724   */\n      add\n        /* \"#utility.yul\":2701:2724   */\n      swap2\n      pop\n        /* \"#utility.yul\":2463:2730   */\n      pop\n        /* \"#utility.yul\":2353:2730   */\n      swap3\n      swap2\n      pop\n      pop\n      jump\t// out\n        /* \"#utility.yul\":2736:3102   */\n    tag_84:\n        /* \"#utility.yul\":2878:2881   */\n      0x00\n        /* \"#utility.yul\":2899:2966   */\n      tag_86\n        /* \"#utility.yul\":2963:2965   */\n      0x2d\n        /* \"#utility.yul\":2958:2961   */\n      dup4\n        /* \"#utility.yul\":2899:2966   */\n      tag_87\n      jump\t// in\n    tag_86:\n        /* \"#utility.yul\":2892:2966   */\n      swap2\n      pop\n        /* \"#utility.yul\":2975:3068   */\n      tag_88\n        /* \"#utility.yul\":3064:3067   */\n      dup3\n        /* \"#utility.yul\":2975:3068   */\n      tag_89\n      jump\t// in\n    tag_88:\n        /* \"#utility.yul\":3093:3095   */\n      0x40\n        /* \"#utility.yul\":3088:3091   */\n      dup3\n        /* \"#utility.yul\":3084:3096   */\n      add\n        /* \"#utility.yul\":3077:3096   */\n      swap1\n      pop\n        /* \"#utility.yul\":2736:3102   */\n      swap2\n      swap1\n      pop\n      jump\t// out\n        /* \"#utility.yul\":3108:3226   */\n    tag_90:\n        /* \"#utility.yul\":3195:3219   */\n      tag_92\n        /* \"#utility.yul\":3213:3218   */\n      dup2\n        /* \"#utility.yul\":3195:3219   */\n      tag_93\n      jump\t// in\n    tag_92:\n        /* \"#utility.yul\":3190:3193   */\n      dup3\n        /* \"#utility.yul\":3183:3220   */\n      mstore\n        /* \"#utility.yul\":3108:3226   */\n      pop\n      pop\n      jump\t// out\n        /* \"#utility.yul\":3232:3507   */\n    tag_26:\n        /* \"#utility.yul\":3364:3367   */\n      0x00\n        /* \"#utility.yul\":3386:3481   */\n      tag_95\n        /* \"#utility.yul\":3477:3480   */\n      dup3\n        /* \"#utility.yul\":3468:3474   */\n      dup5\n        /* \"#utility.yul\":3386:3481   */\n      tag_76\n      jump\t// in\n    tag_95:\n        /* \"#utility.yul\":3379:3481   */\n      swap2\n      pop\n        /* \"#utility.yul\":3498:3501   */\n      dup2\n        /* \"#utility.yul\":3491:3501   */\n      swap1\n      pop\n        /* \"#utility.yul\":3232:3507   */\n      swap3\n      swap2\n      pop\n      pop\n      jump\t// out\n        /* \"#utility.yul\":3513:3735   */\n    tag_19:\n        /* \"#utility.yul\":3606:3610   */\n      0x00\n        /* \"#utility.yul\":3644:3646   */\n      0x20\n        /* \"#utility.yul\":3633:3642   */\n      dup3\n        /* \"#utility.yul\":3629:3647   */\n      add\n        /* \"#utility.yul\":3621:3647   */\n      swap1\n      pop\n        /* \"#utility.yul\":3657:3728   */\n      tag_97\n        /* \"#utility.yul\":3725:3726   */\n      0x00\n        /* \"#utility.yul\":3714:3723   */\n      dup4\n        /* \"#utility.yul\":3710:3727   */\n      add\n        /* \"#utility.yul\":3701:3707   */\n      dup5\n        /* \"#utility.yul\":3657:3728   */\n      tag_68\n      jump\t// in\n    tag_97:\n        /* \"#utility.yul\":3513:3735   */\n      swap3\n      swap2\n      pop\n      pop\n      jump\t// out\n        /* \"#utility.yul\":3741:3963   */\n    tag_28:\n        /* \"#utility.yul\":3834:3838   */\n      0x00\n        /* \"#utility.yul\":3872:3874   */\n      0x20\n        /* \"#utility.yul\":3861:3870   */\n      dup3\n        /* \"#utility.yul\":3857:3875   */\n      add\n        /* \"#utility.yul\":3849:3875   */\n      swap1\n      pop\n        /* \"#utility.yul\":3885:3956   */\n      tag_99\n        /* \"#utility.yul\":3953:3954   */\n      0x00\n        /* \"#utility.yul\":3942:3951   */\n      dup4\n        /* \"#utility.yul\":3938:3955   */\n      add\n        /* \"#utility.yul\":3929:3935   */\n      dup5\n        /* \"#utility.yul\":3885:3956   */\n      tag_72\n      jump\t// in\n    tag_99:\n        /* \"#utility.yul\":3741:3963   */\n      swap3\n      swap2\n      pop\n      pop\n      jump\t// out\n        /* \"#utility.yul\":3969:4388   */\n    tag_23:\n        /* \"#utility.yul\":4135:4139   */\n      0x00\n        /* \"#utility.yul\":4173:4175   */\n      0x20\n        /* \"#utility.yul\":4162:4171   */\n      dup3\n        /* \"#utility.yul\":4158:4176   */\n      add\n        /* \"#utility.yul\":4150:4176   */\n      swap1\n      pop\n        /* \"#utility.yul\":4222:4231   */\n      dup2\n        /* \"#utility.yul\":4216:4220   */\n      dup2\n        /* \"#utility.yul\":4212:4232   */\n      sub\n        /* \"#utility.yul\":4208:4209   */\n      0x00\n        /* \"#utility.yul\":4197:4206   */\n      dup4\n        /* \"#utility.yul\":4193:4210   */\n      add\n        /* \"#utility.yul\":4186:4233   */\n      mstore\n        /* \"#utility.yul\":4250:4381   */\n      tag_101\n        /* \"#utility.yul\":4376:4380   */\n      dup2\n        /* \"#utility.yul\":4250:4381   */\n      tag_84\n      jump\t// in\n    tag_101:\n        /* \"#utility.yul\":4242:4381   */\n      swap1\n      pop\n        /* \"#utility.yul\":3969:4388   */\n      swap2\n      swap1\n      pop\n      jump\t// out\n        /* \"#utility.yul\":4394:4616   */\n    tag_15:\n        /* \"#utility.yul\":4487:4491   */\n      0x00\n        /* \"#utility.yul\":4525:4527   */\n      0x20\n        /* \"#utility.yul\":4514:4523   */\n      dup3\n        /* \"#utility.yul\":4510:4528   */\n      add\n        /* \"#utility.yul\":4502:4528   */\n      swap1\n      pop\n        /* \"#utility.yul\":4538:4609   */\n      tag_103\n        /* \"#utility.yul\":4606:4607   */\n      0x00\n        /* \"#utility.yul\":4595:4604   */\n      dup4\n        /* \"#utility.yul\":4591:4608   */\n      add\n        /* \"#utility.yul\":4582:4588   */\n      dup5\n        /* \"#utility.yul\":4538:4609   */\n      tag_90\n      jump\t// in\n    tag_103:\n        /* \"#utility.yul\":4394:4616   */\n      swap3\n      swap2\n      pop\n      pop\n      jump\t// out\n        /* \"#utility.yul\":4622:4751   */\n    tag_37:\n        /* \"#utility.yul\":4656:4662   */\n      0x00\n        /* \"#utility.yul\":4683:4703   */\n      tag_105\n      tag_106\n      jump\t// in\n    tag_105:\n        /* \"#utility.yul\":4673:4703   */\n      swap1\n      pop\n        /* \"#utility.yul\":4712:4745   */\n      tag_107\n        /* \"#utility.yul\":4740:4744   */\n      dup3\n        /* \"#utility.yul\":4732:4738   */\n      dup3\n        /* \"#utility.yul\":4712:4745   */\n      tag_108\n      jump\t// in\n    tag_107:\n        /* \"#utility.yul\":4622:4751   */\n      swap2\n      swap1\n      pop\n      jump\t// out\n        /* \"#utility.yul\":4757:4832   */\n    tag_106:\n        /* \"#utility.yul\":4790:4796   */\n      0x00\n        /* \"#utility.yul\":4823:4825   */\n      0x40\n        /* \"#utility.yul\":4817:4826   */\n      mload\n        /* \"#utility.yul\":4807:4826   */\n      swap1\n      pop\n        /* \"#utility.yul\":4757:4832   */\n      swap1\n      jump\t// out\n        /* \"#utility.yul\":4838:5146   */\n    tag_36:\n        /* \"#utility.yul\":4900:4904   */\n      0x00\n        /* \"#utility.yul\":4990:5008   */\n      0xffffffffffffffff\n        /* \"#utility.yul\":4982:4988   */\n      dup3\n        /* \"#utility.yul\":4979:5009   */\n      gt\n        /* \"#utility.yul\":4976:5032   */\n      iszero\n      tag_111\n      jumpi\n        /* \"#utility.yul\":5012:5030   */\n      tag_112\n      tag_113\n      jump\t// in\n    tag_112:\n        /* \"#utility.yul\":4976:5032   */\n    tag_111:\n        /* \"#utility.yul\":5050:5079   */\n      tag_114\n        /* \"#utility.yul\":5072:5078   */\n      dup3\n        /* \"#utility.yul\":5050:5079   */\n      tag_115\n      jump\t// in\n    tag_114:\n        /* \"#utility.yul\":5042:5079   */\n      swap1\n      pop\n        /* \"#utility.yul\":5134:5138   */\n      0x20\n        /* \"#utility.yul\":5128:5132   */\n      dup2\n        /* \"#utility.yul\":5124:5139   */\n      add\n        /* \"#utility.yul\":5116:5139   */\n      swap1\n      pop\n        /* \"#utility.yul\":4838:5146   */\n      swap2\n      swap1\n      pop\n      jump\t// out\n        /* \"#utility.yul\":5152:5251   */\n    tag_79:\n        /* \"#utility.yul\":5204:5210   */\n      0x00\n        /* \"#utility.yul\":5238:5243   */\n      dup2\n        /* \"#utility.yul\":5232:5244   */\n      mload\n        /* \"#utility.yul\":5222:5244   */\n      swap1\n      pop\n        /* \"#utility.yul\":5152:5251   */\n      swap2\n      swap1\n      pop\n      jump\t// out\n        /* \"#utility.yul\":5257:5426   */\n    tag_87:\n        /* \"#utility.yul\":5341:5352   */\n      0x00\n        /* \"#utility.yul\":5375:5381   */\n      dup3\n        /* \"#utility.yul\":5370:5373   */\n      dup3\n        /* \"#utility.yul\":5363:5382   */\n      mstore\n        /* \"#utility.yul\":5415:5419   */\n      0x20\n        /* \"#utility.yul\":5410:5413   */\n      dup3\n        /* \"#utility.yul\":5406:5420   */\n      add\n        /* \"#utility.yul\":5391:5420   */\n      swap1\n      pop\n        /* \"#utility.yul\":5257:5426   */\n      swap3\n      swap2\n      pop\n      pop\n      jump\t// out\n        /* \"#utility.yul\":5432:5580   */\n    tag_81:\n        /* \"#utility.yul\":5534:5545   */\n      0x00\n        /* \"#utility.yul\":5571:5574   */\n      dup2\n        /* \"#utility.yul\":5556:5574   */\n      swap1\n      pop\n        /* \"#utility.yul\":5432:5580   */\n      swap3\n      swap2\n      pop\n      pop\n      jump\t// out\n        /* \"#utility.yul\":5586:5682   */\n    tag_71:\n        /* \"#utility.yul\":5623:5630   */\n      0x00\n        /* \"#utility.yul\":5652:5676   */\n      tag_120\n        /* \"#utility.yul\":5670:5675   */\n      dup3\n        /* \"#utility.yul\":5652:5676   */\n      tag_121\n      jump\t// in\n    tag_120:\n        /* \"#utility.yul\":5641:5676   */\n      swap1\n      pop\n        /* \"#utility.yul\":5586:5682   */\n      swap2\n      swap1\n      pop\n      jump\t// out\n        /* \"#utility.yul\":5688:5765   */\n    tag_75:\n        /* \"#utility.yul\":5725:5732   */\n      0x00\n        /* \"#utility.yul\":5754:5759   */\n      dup2\n        /* \"#utility.yul\":5743:5759   */\n      swap1\n      pop\n        /* \"#utility.yul\":5688:5765   */\n      swap2\n      swap1\n      pop\n      jump\t// out\n        /* \"#utility.yul\":5771:5897   */\n    tag_121:\n        /* \"#utility.yul\":5808:5815   */\n      0x00\n        /* \"#utility.yul\":5848:5890   */\n      0xffffffffffffffffffffffffffffffffffffffff\n        /* \"#utility.yul\":5841:5846   */\n      dup3\n        /* \"#utility.yul\":5837:5891   */\n      and\n        /* \"#utility.yul\":5826:5891   */\n      swap1\n      pop\n        /* \"#utility.yul\":5771:5897   */\n      swap2\n      swap1\n      pop\n      jump\t// out\n        /* \"#utility.yul\":5903:5980   */\n    tag_93:\n        /* \"#utility.yul\":5940:5947   */\n      0x00\n        /* \"#utility.yul\":5969:5974   */\n      dup2\n        /* \"#utility.yul\":5958:5974   */\n      swap1\n      pop\n        /* \"#utility.yul\":5903:5980   */\n      swap2\n      swap1\n      pop\n      jump\t// out\n        /* \"#utility.yul\":5986:6140   */\n    tag_42:\n        /* \"#utility.yul\":6070:6076   */\n      dup3\n        /* \"#utility.yul\":6065:6068   */\n      dup2\n        /* \"#utility.yul\":6060:6063   */\n      dup4\n        /* \"#utility.yul\":6047:6077   */\n      calldatacopy\n        /* \"#utility.yul\":6132:6133   */\n      0x00\n        /* \"#utility.yul\":6123:6129   */\n      dup4\n        /* \"#utility.yul\":6118:6121   */\n      dup4\n        /* \"#utility.yul\":6114:6130   */\n      add\n        /* \"#utility.yul\":6107:6134   */\n      mstore\n        /* \"#utility.yul\":5986:6140   */\n      pop\n      pop\n      pop\n      jump\t// out\n        /* \"#utility.yul\":6146:6453   */\n    tag_83:\n        /* \"#utility.yul\":6214:6215   */\n      0x00\n        /* \"#utility.yul\":6224:6337   */\n    tag_127:\n        /* \"#utility.yul\":6238:6244   */\n      dup4\n        /* \"#utility.yul\":6235:6236   */\n      dup2\n        /* \"#utility.yul\":6232:6245   */\n      lt\n        /* \"#utility.yul\":6224:6337   */\n      iszero\n      tag_129\n      jumpi\n        /* \"#utility.yul\":6323:6324   */\n      dup1\n        /* \"#utility.yul\":6318:6321   */\n      dup3\n        /* \"#utility.yul\":6314:6325   */\n      add\n        /* \"#utility.yul\":6308:6326   */\n      mload\n        /* \"#utility.yul\":6304:6305   */\n      dup2\n        /* \"#utility.yul\":6299:6302   */\n      dup5\n        /* \"#utility.yul\":6295:6306   */\n      add\n        /* \"#utility.yul\":6288:6327   */\n      mstore\n        /* \"#utility.yul\":6260:6262   */\n      0x20\n        /* \"#utility.yul\":6257:6258   */\n      dup2\n        /* \"#utility.yul\":6253:6263   */\n      add\n        /* \"#utility.yul\":6248:6263   */\n      swap1\n      pop\n        /* \"#utility.yul\":6224:6337   */\n      jump(tag_127)\n    tag_129:\n        /* \"#utility.yul\":6355:6361   */\n      dup4\n        /* \"#utility.yul\":6352:6353   */\n      dup2\n        /* \"#utility.yul\":6349:6362   */\n      gt\n        /* \"#utility.yul\":6346:6447   */\n      iszero\n      tag_130\n      jumpi\n        /* \"#utility.yul\":6435:6436   */\n      0x00\n        /* \"#utility.yul\":6426:6432   */\n      dup5\n        /* \"#utility.yul\":6421:6424   */\n      dup5\n        /* \"#utility.yul\":6417:6433   */\n      add\n        /* \"#utility.yul\":6410:6437   */\n      mstore\n        /* \"#utility.yul\":6346:6447   */\n    tag_130:\n        /* \"#utility.yul\":6195:6453   */\n      pop\n        /* \"#utility.yul\":6146:6453   */\n      pop\n      pop\n      pop\n      jump\t// out\n        /* \"#utility.yul\":6459:6740   */\n    tag_108:\n        /* \"#utility.yul\":6542:6569   */\n      tag_132\n        /* \"#utility.yul\":6564:6568   */\n      dup3\n        /* \"#utility.yul\":6542:6569   */\n      tag_115\n      jump\t// in\n    tag_132:\n        /* \"#utility.yul\":6534:6540   */\n      dup2\n        /* \"#utility.yul\":6530:6570   */\n      add\n        /* \"#utility.yul\":6672:6678   */\n      dup2\n        /* \"#utility.yul\":6660:6670   */\n      dup2\n        /* \"#utility.yul\":6657:6679   */\n      lt\n        /* \"#utility.yul\":6636:6654   */\n      0xffffffffffffffff\n        /* \"#utility.yul\":6624:6634   */\n      dup3\n        /* \"#utility.yul\":6621:6655   */\n      gt\n        /* \"#utility.yul\":6618:6680   */\n      or\n        /* \"#utility.yul\":6615:6703   */\n      iszero\n      tag_133\n      jumpi\n        /* \"#utility.yul\":6683:6701   */\n      tag_134\n      tag_113\n      jump\t// in\n    tag_134:\n        /* \"#utility.yul\":6615:6703   */\n    tag_133:\n        /* \"#utility.yul\":6723:6733   */\n      dup1\n        /* \"#utility.yul\":6719:6721   */\n      0x40\n        /* \"#utility.yul\":6712:6734   */\n      mstore\n        /* \"#utility.yul\":6502:6740   */\n      pop\n        /* \"#utility.yul\":6459:6740   */\n      pop\n      pop\n      jump\t// out\n        /* \"#utility.yul\":6746:6926   */\n    tag_113:\n        /* \"#utility.yul\":6794:6871   */\n      0x4e487b7100000000000000000000000000000000000000000000000000000000\n        /* \"#utility.yul\":6791:6792   */\n      0x00\n        /* \"#utility.yul\":6784:6872   */\n      mstore\n        /* \"#utility.yul\":6891:6895   */\n      0x41\n        /* \"#utility.yul\":6888:6889   */\n      0x04\n        /* \"#utility.yul\":6881:6896   */\n      mstore\n        /* \"#utility.yul\":6915:6919   */\n      0x24\n        /* \"#utility.yul\":6912:6913   */\n      0x00\n        /* \"#utility.yul\":6905:6920   */\n      revert\n        /* \"#utility.yul\":6932:7049   */\n    tag_47:\n        /* \"#utility.yul\":7041:7042   */\n      0x00\n        /* \"#utility.yul\":7038:7039   */\n      dup1\n        /* \"#utility.yul\":7031:7043   */\n      revert\n        /* \"#utility.yul\":7055:7172   */\n    tag_40:\n        /* \"#utility.yul\":7164:7165   */\n      0x00\n        /* \"#utility.yul\":7161:7162   */\n      dup1\n        /* \"#utility.yul\":7154:7166   */\n      revert\n        /* \"#utility.yul\":7178:7295   */\n    tag_59:\n        /* \"#utility.yul\":7287:7288   */\n      0x00\n        /* \"#utility.yul\":7284:7285   */\n      dup1\n        /* \"#utility.yul\":7277:7289   */\n      revert\n        /* \"#utility.yul\":7301:7418   */\n    tag_56:\n        /* \"#utility.yul\":7410:7411   */\n      0x00\n        /* \"#utility.yul\":7407:7408   */\n      dup1\n        /* \"#utility.yul\":7400:7412   */\n      revert\n        /* \"#utility.yul\":7424:7526   */\n    tag_115:\n        /* \"#utility.yul\":7465:7471   */\n      0x00\n        /* \"#utility.yul\":7516:7518   */\n      0x1f\n        /* \"#utility.yul\":7512:7519   */\n      not\n        /* \"#utility.yul\":7507:7509   */\n      0x1f\n        /* \"#utility.yul\":7500:7505   */\n      dup4\n        /* \"#utility.yul\":7496:7510   */\n      add\n        /* \"#utility.yul\":7492:7520   */\n      and\n        /* \"#utility.yul\":7482:7520   */\n      swap1\n      pop\n        /* \"#utility.yul\":7424:7526   */\n      swap2\n      swap1\n      pop\n      jump\t// out\n        /* \"#utility.yul\":7532:7764   */\n    tag_89:\n        /* \"#utility.yul\":7672:7706   */\n      0x4e6f207469656e6573207065726d69736f207061726120656a65637574617220\n        /* \"#utility.yul\":7668:7669   */\n      0x00\n        /* \"#utility.yul\":7660:7666   */\n      dup3\n        /* \"#utility.yul\":7656:7670   */\n      add\n        /* \"#utility.yul\":7649:7707   */\n      mstore\n        /* \"#utility.yul\":7741:7756   */\n      0x657374612066756e63696f6e2e00000000000000000000000000000000000000\n        /* \"#utility.yul\":7736:7738   */\n      0x20\n        /* \"#utility.yul\":7728:7734   */\n      dup3\n        /* \"#utility.yul\":7724:7739   */\n      add\n        /* \"#utility.yul\":7717:7757   */\n      mstore\n        /* \"#utility.yul\":7532:7764   */\n      pop\n      jump\t// out\n        /* \"#utility.yul\":7770:7892   */\n    tag_52:\n        /* \"#utility.yul\":7843:7867   */\n      tag_143\n        /* \"#utility.yul\":7861:7866   */\n      dup2\n        /* \"#utility.yul\":7843:7867   */\n      tag_93\n      jump\t// in\n    tag_143:\n        /* \"#utility.yul\":7836:7841   */\n      dup2\n        /* \"#utility.yul\":7833:7868   */\n      eq\n        /* \"#utility.yul\":7823:7886   */\n      tag_144\n      jumpi\n        /* \"#utility.yul\":7882:7883   */\n      0x00\n        /* \"#utility.yul\":7879:7880   */\n      dup1\n        /* \"#utility.yul\":7872:7884   */\n      revert\n        /* \"#utility.yul\":7823:7886   */\n    tag_144:\n        /* \"#utility.yul\":7770:7892   */\n      pop\n      jump\t// out\n\n    auxdata: 0xa2646970667358221220dffb7ec1b69d1010a0d15aacf973c546f53f1ebe8c7fad0383f97bb1dd32d90d64736f6c63430008070033\n}\n",
				"bytecode": {
					"linkReferences": {},
					"object": "608060405234801561001057600080fd5b50336000806101000a81548173ffffffffffffffffffffffffffffffffffffffff021916908373ffffffffffffffffffffffffffffffffffffffff16021790555061068a806100606000396000f3fe608060405234801561001057600080fd5b50600436106100415760003560e01c8063040d9f6014610046578063deafddae14610062578063df09657614610092575b600080fd5b610060600480360381019061005b91906102ff565b6100b0565b005b61007c600480360381019061007791906102b6565b6101bf565b6040516100899190610449565b60405180910390f35b61009a61020d565b6040516100a791906103f3565b60405180910390f35b3360008054906101000a900473ffffffffffffffffffffffffffffffffffffffff1673ffffffffffffffffffffffffffffffffffffffff168173ffffffffffffffffffffffffffffffffffffffff161461013f576040517f08c379a000000000000000000000000000000000000000000000000000000000815260040161013690610429565b60405180910390fd5b60008360405160200161015291906103dc565b6040516020818303038152906040528051906020012090508260016000838152602001908152602001600020819055507f9129eeeb684507aca017f10030b70e5bf86d129f417fcc5840348a957eb12cee816040516101b1919061040e565b60405180910390a150505050565b600080826040516020016101d391906103dc565b6040516020818303038152906040528051906020012090506000600160008381526020019081526020016000205490508092505050919050565b60008054906101000a900473ffffffffffffffffffffffffffffffffffffffff1681565b600061024461023f84610489565b610464565b9050828152602081018484840111156102605761025f6105ce565b5b61026b848285610527565b509392505050565b600082601f830112610288576102876105c9565b5b8135610298848260208601610231565b91505092915050565b6000813590506102b08161063d565b92915050565b6000602082840312156102cc576102cb6105d8565b5b600082013567ffffffffffffffff8111156102ea576102e96105d3565b5b6102f684828501610273565b91505092915050565b60008060408385031215610316576103156105d8565b5b600083013567ffffffffffffffff811115610334576103336105d3565b5b61034085828601610273565b9250506020610351858286016102a1565b9150509250929050565b610364816104e1565b82525050565b610373816104f3565b82525050565b6000610384826104ba565b61038e81856104d6565b935061039e818560208601610536565b80840191505092915050565b60006103b7602d836104c5565b91506103c2826105ee565b604082019050919050565b6103d68161051d565b82525050565b60006103e88284610379565b915081905092915050565b6000602082019050610408600083018461035b565b92915050565b6000602082019050610423600083018461036a565b92915050565b60006020820190508181036000830152610442816103aa565b9050919050565b600060208201905061045e60008301846103cd565b92915050565b600061046e61047f565b905061047a8282610569565b919050565b6000604051905090565b600067ffffffffffffffff8211156104a4576104a361059a565b5b6104ad826105dd565b9050602081019050919050565b600081519050919050565b600082825260208201905092915050565b600081905092915050565b60006104ec826104fd565b9050919050565b6000819050919050565b600073ffffffffffffffffffffffffffffffffffffffff82169050919050565b6000819050919050565b82818337600083830152505050565b60005b83811015610554578082015181840152602081019050610539565b83811115610563576000848401525b50505050565b610572826105dd565b810181811067ffffffffffffffff821117156105915761059061059a565b5b80604052505050565b7f4e487b7100000000000000000000000000000000000000000000000000000000600052604160045260246000fd5b600080fd5b600080fd5b600080fd5b600080fd5b6000601f19601f8301169050919050565b7f4e6f207469656e6573207065726d69736f207061726120656a6563757461722060008201527f657374612066756e63696f6e2e00000000000000000000000000000000000000602082015250565b6106468161051d565b811461065157600080fd5b5056fea2646970667358221220dffb7ec1b69d1010a0d15aacf973c546f53f1ebe8c7fad0383f97bb1dd32d90d64736f6c63430008070033",
					"opcodes": "PUSH1 0x80 PUSH1 0x40 MSTORE CALLVALUE DUP1 ISZERO PUSH2 0x10 JUMPI PUSH1 0x0 DUP1 REVERT JUMPDEST POP CALLER PUSH1 0x0 DUP1 PUSH2 0x100 EXP DUP2 SLOAD DUP2 PUSH20 0xFFFFFFFFFFFFFFFFFFFFFFFFFFFFFFFFFFFFFFFF MUL NOT AND SWAP1 DUP4 PUSH20 0xFFFFFFFFFFFFFFFFFFFFFFFFFFFFFFFFFFFFFFFF AND MUL OR SWAP1 SSTORE POP PUSH2 0x68A DUP1 PUSH2 0x60 PUSH1 0x0 CODECOPY PUSH1 0x0 RETURN INVALID PUSH1 0x80 PUSH1 0x40 MSTORE CALLVALUE DUP1 ISZERO PUSH2 0x10 JUMPI PUSH1 0x0 DUP1 REVERT JUMPDEST POP PUSH1 0x4 CALLDATASIZE LT PUSH2 0x41 JUMPI PUSH1 0x0 CALLDATALOAD PUSH1 0xE0 SHR DUP1 PUSH4 0x40D9F60 EQ PUSH2 0x46 JUMPI DUP1 PUSH4 0xDEAFDDAE EQ PUSH2 0x62 JUMPI DUP1 PUSH4 0xDF096576 EQ PUSH2 0x92 JUMPI JUMPDEST PUSH1 0x0 DUP1 REVERT JUMPDEST PUSH2 0x60 PUSH1 0x4 DUP1 CALLDATASIZE SUB DUP2 ADD SWAP1 PUSH2 0x5B SWAP2 SWAP1 PUSH2 0x2FF JUMP JUMPDEST PUSH2 0xB0 JUMP JUMPDEST STOP JUMPDEST PUSH2 0x7C PUSH1 0x4 DUP1 CALLDATASIZE SUB DUP2 ADD SWAP1 PUSH2 0x77 SWAP2 SWAP1 PUSH2 0x2B6 JUMP JUMPDEST PUSH2 0x1BF JUMP JUMPDEST PUSH1 0x40 MLOAD PUSH2 0x89 SWAP2 SWAP1 PUSH2 0x449 JUMP JUMPDEST PUSH1 0x40 MLOAD DUP1 SWAP2 SUB SWAP1 RETURN JUMPDEST PUSH2 0x9A PUSH2 0x20D JUMP JUMPDEST PUSH1 0x40 MLOAD PUSH2 0xA7 SWAP2 SWAP1 PUSH2 0x3F3 JUMP JUMPDEST PUSH1 0x40 MLOAD DUP1 SWAP2 SUB SWAP1 RETURN JUMPDEST CALLER PUSH1 0x0 DUP1 SLOAD SWAP1 PUSH2 0x100 EXP SWAP1 DIV PUSH20 0xFFFFFFFFFFFFFFFFFFFFFFFFFFFFFFFFFFFFFFFF AND PUSH20 0xFFFFFFFFFFFFFFFFFFFFFFFFFFFFFFFFFFFFFFFF AND DUP2 PUSH20 0xFFFFFFFFFFFFFFFFFFFFFFFFFFFFFFFFFFFFFFFF AND EQ PUSH2 0x13F JUMPI PUSH1 0x40 MLOAD PUSH32 0x8C379A000000000000000000000000000000000000000000000000000000000 DUP2 MSTORE PUSH1 0x4 ADD PUSH2 0x136 SWAP1 PUSH2 0x429 JUMP JUMPDEST PUSH1 0x40 MLOAD DUP1 SWAP2 SUB SWAP1 REVERT JUMPDEST PUSH1 0x0 DUP4 PUSH1 0x40 MLOAD PUSH1 0x20 ADD PUSH2 0x152 SWAP2 SWAP1 PUSH2 0x3DC JUMP JUMPDEST PUSH1 0x40 MLOAD PUSH1 0x20 DUP2 DUP4 SUB SUB DUP2 MSTORE SWAP1 PUSH1 0x40 MSTORE DUP1 MLOAD SWAP1 PUSH1 0x20 ADD KECCAK256 SWAP1 POP DUP3 PUSH1 0x1 PUSH1 0x0 DUP4 DUP2 MSTORE PUSH1 0x20 ADD SWAP1 DUP2 MSTORE PUSH1 0x20 ADD PUSH1 0x0 KECCAK256 DUP2 SWAP1 SSTORE POP PUSH32 0x9129EEEB684507ACA017F10030B70E5BF86D129F417FCC5840348A957EB12CEE DUP2 PUSH1 0x40 MLOAD PUSH2 0x1B1 SWAP2 SWAP1 PUSH2 0x40E JUMP JUMPDEST PUSH1 0x40 MLOAD DUP1 SWAP2 SUB SWAP1 LOG1 POP POP POP POP JUMP JUMPDEST PUSH1 0x0 DUP1 DUP3 PUSH1 0x40 MLOAD PUSH1 0x20 ADD PUSH2 0x1D3 SWAP2 SWAP1 PUSH2 0x3DC JUMP JUMPDEST PUSH1 0x40 MLOAD PUSH1 0x20 DUP2 DUP4 SUB SUB DUP2 MSTORE SWAP1 PUSH1 0x40 MSTORE DUP1 MLOAD SWAP1 PUSH1 0x20 ADD KECCAK256 SWAP1 POP PUSH1 0x0 PUSH1 0x1 PUSH1 0x0 DUP4 DUP2 MSTORE PUSH1 0x20 ADD SWAP1 DUP2 MSTORE PUSH1 0x20 ADD PUSH1 0x0 KECCAK256 SLOAD SWAP1 POP DUP1 SWAP3 POP POP POP SWAP2 SWAP1 POP JUMP JUMPDEST PUSH1 0x0 DUP1 SLOAD SWAP1 PUSH2 0x100 EXP SWAP1 DIV PUSH20 0xFFFFFFFFFFFFFFFFFFFFFFFFFFFFFFFFFFFFFFFF AND DUP2 JUMP JUMPDEST PUSH1 0x0 PUSH2 0x244 PUSH2 0x23F DUP5 PUSH2 0x489 JUMP JUMPDEST PUSH2 0x464 JUMP JUMPDEST SWAP1 POP DUP3 DUP2 MSTORE PUSH1 0x20 DUP2 ADD DUP5 DUP5 DUP5 ADD GT ISZERO PUSH2 0x260 JUMPI PUSH2 0x25F PUSH2 0x5CE JUMP JUMPDEST JUMPDEST PUSH2 0x26B DUP5 DUP3 DUP6 PUSH2 0x527 JUMP JUMPDEST POP SWAP4 SWAP3 POP POP POP JUMP JUMPDEST PUSH1 0x0 DUP3 PUSH1 0x1F DUP4 ADD SLT PUSH2 0x288 JUMPI PUSH2 0x287 PUSH2 0x5C9 JUMP JUMPDEST JUMPDEST DUP2 CALLDATALOAD PUSH2 0x298 DUP5 DUP3 PUSH1 0x20 DUP7 ADD PUSH2 0x231 JUMP JUMPDEST SWAP2 POP POP SWAP3 SWAP2 POP POP JUMP JUMPDEST PUSH1 0x0 DUP2 CALLDATALOAD SWAP1 POP PUSH2 0x2B0 DUP2 PUSH2 0x63D JUMP JUMPDEST SWAP3 SWAP2 POP POP JUMP JUMPDEST PUSH1 0x0 PUSH1 0x20 DUP3 DUP5 SUB SLT ISZERO PUSH2 0x2CC JUMPI PUSH2 0x2CB PUSH2 0x5D8 JUMP JUMPDEST JUMPDEST PUSH1 0x0 DUP3 ADD CALLDATALOAD PUSH8 0xFFFFFFFFFFFFFFFF DUP2 GT ISZERO PUSH2 0x2EA JUMPI PUSH2 0x2E9 PUSH2 0x5D3 JUMP JUMPDEST JUMPDEST PUSH2 0x2F6 DUP5 DUP3 DUP6 ADD PUSH2 0x273 JUMP JUMPDEST SWAP2 POP POP SWAP3 SWAP2 POP POP JUMP JUMPDEST PUSH1 0x0 DUP1 PUSH1 0x40 DUP4 DUP6 SUB SLT ISZERO PUSH2 0x316 JUMPI PUSH2 0x315 PUSH2 0x5D8 JUMP JUMPDEST JUMPDEST PUSH1 0x0 DUP4 ADD CALLDATALOAD PUSH8 0xFFFFFFFFFFFFFFFF DUP2 GT ISZERO PUSH2 0x334 JUMPI PUSH2 0x333 PUSH2 0x5D3 JUMP JUMPDEST JUMPDEST PUSH2 0x340 DUP6 DUP3 DUP7 ADD PUSH2 0x273 JUMP JUMPDEST SWAP3 POP POP PUSH1 0x20 PUSH2 0x351 DUP6 DUP3 DUP7 ADD PUSH2 0x2A1 JUMP JUMPDEST SWAP2 POP POP SWAP3 POP SWAP3 SWAP1 POP JUMP JUMPDEST PUSH2 0x364 DUP2 PUSH2 0x4E1 JUMP JUMPDEST DUP3 MSTORE POP POP JUMP JUMPDEST PUSH2 0x373 DUP2 PUSH2 0x4F3 JUMP JUMPDEST DUP3 MSTORE POP POP JUMP JUMPDEST PUSH1 0x0 PUSH2 0x384 DUP3 PUSH2 0x4BA JUMP JUMPDEST PUSH2 0x38E DUP2 DUP6 PUSH2 0x4D6 JUMP JUMPDEST SWAP4 POP PUSH2 0x39E DUP2 DUP6 PUSH1 0x20 DUP7 ADD PUSH2 0x536 JUMP JUMPDEST DUP1 DUP5 ADD SWAP2 POP POP SWAP3 SWAP2 POP POP JUMP JUMPDEST PUSH1 0x0 PUSH2 0x3B7 PUSH1 0x2D DUP4 PUSH2 0x4C5 JUMP JUMPDEST SWAP2 POP PUSH2 0x3C2 DUP3 PUSH2 0x5EE JUMP JUMPDEST PUSH1 0x40 DUP3 ADD SWAP1 POP SWAP2 SWAP1 POP JUMP JUMPDEST PUSH2 0x3D6 DUP2 PUSH2 0x51D JUMP JUMPDEST DUP3 MSTORE POP POP JUMP JUMPDEST PUSH1 0x0 PUSH2 0x3E8 DUP3 DUP5 PUSH2 0x379 JUMP JUMPDEST SWAP2 POP DUP2 SWAP1 POP SWAP3 SWAP2 POP POP JUMP JUMPDEST PUSH1 0x0 PUSH1 0x20 DUP3 ADD SWAP1 POP PUSH2 0x408 PUSH1 0x0 DUP4 ADD DUP5 PUSH2 0x35B JUMP JUMPDEST SWAP3 SWAP2 POP POP JUMP JUMPDEST PUSH1 0x0 PUSH1 0x20 DUP3 ADD SWAP1 POP PUSH2 0x423 PUSH1 0x0 DUP4 ADD DUP5 PUSH2 0x36A JUMP JUMPDEST SWAP3 SWAP2 POP POP JUMP JUMPDEST PUSH1 0x0 PUSH1 0x20 DUP3 ADD SWAP1 POP DUP2 DUP2 SUB PUSH1 0x0 DUP4 ADD MSTORE PUSH2 0x442 DUP2 PUSH2 0x3AA JUMP JUMPDEST SWAP1 POP SWAP2 SWAP1 POP JUMP JUMPDEST PUSH1 0x0 PUSH1 0x20 DUP3 ADD SWAP1 POP PUSH2 0x45E PUSH1 0x0 DUP4 ADD DUP5 PUSH2 0x3CD JUMP JUMPDEST SWAP3 SWAP2 POP POP JUMP JUMPDEST PUSH1 0x0 PUSH2 0x46E PUSH2 0x47F JUMP JUMPDEST SWAP1 POP PUSH2 0x47A DUP3 DUP3 PUSH2 0x569 JUMP JUMPDEST SWAP2 SWAP1 POP JUMP JUMPDEST PUSH1 0x0 PUSH1 0x40 MLOAD SWAP1 POP SWAP1 JUMP JUMPDEST PUSH1 0x0 PUSH8 0xFFFFFFFFFFFFFFFF DUP3 GT ISZERO PUSH2 0x4A4 JUMPI PUSH2 0x4A3 PUSH2 0x59A JUMP JUMPDEST JUMPDEST PUSH2 0x4AD DUP3 PUSH2 0x5DD JUMP JUMPDEST SWAP1 POP PUSH1 0x20 DUP2 ADD SWAP1 POP SWAP2 SWAP1 POP JUMP JUMPDEST PUSH1 0x0 DUP2 MLOAD SWAP1 POP SWAP2 SWAP1 POP JUMP JUMPDEST PUSH1 0x0 DUP3 DUP3 MSTORE PUSH1 0x20 DUP3 ADD SWAP1 POP SWAP3 SWAP2 POP POP JUMP JUMPDEST PUSH1 0x0 DUP2 SWAP1 POP SWAP3 SWAP2 POP POP JUMP JUMPDEST PUSH1 0x0 PUSH2 0x4EC DUP3 PUSH2 0x4FD JUMP JUMPDEST SWAP1 POP SWAP2 SWAP1 POP JUMP JUMPDEST PUSH1 0x0 DUP2 SWAP1 POP SWAP2 SWAP1 POP JUMP JUMPDEST PUSH1 0x0 PUSH20 0xFFFFFFFFFFFFFFFFFFFFFFFFFFFFFFFFFFFFFFFF DUP3 AND SWAP1 POP SWAP2 SWAP1 POP JUMP JUMPDEST PUSH1 0x0 DUP2 SWAP1 POP SWAP2 SWAP1 POP JUMP JUMPDEST DUP3 DUP2 DUP4 CALLDATACOPY PUSH1 0x0 DUP4 DUP4 ADD MSTORE POP POP POP JUMP JUMPDEST PUSH1 0x0 JUMPDEST DUP4 DUP2 LT ISZERO PUSH2 0x554 JUMPI DUP1 DUP3 ADD MLOAD DUP2 DUP5 ADD MSTORE PUSH1 0x20 DUP2 ADD SWAP1 POP PUSH2 0x539 JUMP JUMPDEST DUP4 DUP2 GT ISZERO PUSH2 0x563 JUMPI PUSH1 0x0 DUP5 DUP5 ADD MSTORE JUMPDEST POP POP POP POP JUMP JUMPDEST PUSH2 0x572 DUP3 PUSH2 0x5DD JUMP JUMPDEST DUP2 ADD DUP2 DUP2 LT PUSH8 0xFFFFFFFFFFFFFFFF DUP3 GT OR ISZERO PUSH2 0x591 JUMPI PUSH2 0x590 PUSH2 0x59A JUMP JUMPDEST JUMPDEST DUP1 PUSH1 0x40 MSTORE POP POP POP JUMP JUMPDEST PUSH32 0x4E487B7100000000000000000000000000000000000000000000000000000000 PUSH1 0x0 MSTORE PUSH1 0x41 PUSH1 0x4 MSTORE PUSH1 0x24 PUSH1 0x0 REVERT JUMPDEST PUSH1 0x0 DUP1 REVERT JUMPDEST PUSH1 0x0 DUP1 REVERT JUMPDEST PUSH1 0x0 DUP1 REVERT JUMPDEST PUSH1 0x0 DUP1 REVERT JUMPDEST PUSH1 0x0 PUSH1 0x1F NOT PUSH1 0x1F DUP4 ADD AND SWAP1 POP SWAP2 SWAP1 POP JUMP JUMPDEST PUSH32 0x4E6F207469656E6573207065726D69736F207061726120656A65637574617220 PUSH1 0x0 DUP3 ADD MSTORE PUSH32 0x657374612066756E63696F6E2E00000000000000000000000000000000000000 PUSH1 0x20 DUP3 ADD MSTORE POP JUMP JUMPDEST PUSH2 0x646 DUP2 PUSH2 0x51D JUMP JUMPDEST DUP2 EQ PUSH2 0x651 JUMPI PUSH1 0x0 DUP1 REVERT JUMPDEST POP JUMP INVALID LOG2 PUSH5 0x6970667358 0x22 SLT KECCAK256 0xDF 0xFB PUSH31 0xC1B69D1010A0D15AACF973C546F53F1EBE8C7FAD0383F97BB1DD32D90D6473 PUSH16 0x6C634300080700330000000000000000 "
				},
				"gasEstimates": {
					"creation": {
						"codeDepositCost": "334800",
						"executionCost": "24640",
						"totalCost": "359440"
					},
					"external": {
						"Evaluar(string,uint256)": "infinite",
						"profesor()": "2533",
						"verNotas(string)": "infinite"
					}
				},
				"methodIdentifiers": {
					"Evaluar(string,uint256)": "040d9f60",
					"profesor()": "df096576",
					"verNotas(string)": "deafddae"
				}
			},
			"storageLayout": {
				"storage": [
					{
						"astId": 4,
						"contract": "notas.sol:Notas",
						"label": "profesor",
						"offset": 0,
						"slot": "0",
						"type": "t_address"
					},
					{
						"astId": 17,
						"contract": "notas.sol:Notas",
						"label": "notas",
						"offset": 0,
						"slot": "1",
						"type": "t_mapping(t_bytes32,t_uint256)"
					},
					{
						"astId": 20,
						"contract": "notas.sol:Notas",
						"label": "revisiones",
						"offset": 0,
						"slot": "2",
						"type": "t_array(t_string_storage)dyn_storage"
					}
				],
				"types": {
					"t_address": {
						"encoding": "inplace",
						"label": "address",
						"numberOfBytes": "20"
					},
					"t_array(t_string_storage)dyn_storage": {
						"base": "t_string_storage",
						"encoding": "dynamic_array",
						"label": "string[]",
						"numberOfBytes": "32"
					},
					"t_bytes32": {
						"encoding": "inplace",
						"label": "bytes32",
						"numberOfBytes": "32"
					},
					"t_mapping(t_bytes32,t_uint256)": {
						"encoding": "mapping",
						"key": "t_bytes32",
						"label": "mapping(bytes32 => uint256)",
						"numberOfBytes": "32",
						"value": "t_uint256"
					},
					"t_string_storage": {
						"encoding": "bytes",
						"label": "string",
						"numberOfBytes": "32"
					},
					"t_uint256": {
						"encoding": "inplace",
						"label": "uint256",
						"numberOfBytes": "32"
					}
				}
			},
			"userdoc": {
				"kind": "user",
				"methods": {},
				"version": 1
			}
		}
	}
}